:020000040800F2
:100000003809002049010008390D00084D0C00088E
:10001000350D0008490A0008F31B00080000000025
:10002000000000000000000000000000951900081A
:10003000A10A0008000000000D180008A91A000815
:100040006301000863010008630100086301000800
:1000500063010008630100086301000863010008F0
:1000600063010008630100086301000863010008E0
:1000700063010008630100086301000863010008D0
:1000800063010008630100086301000863010008C0
:1000900063010008630100086301000863010008B0
:1000A00063010008630100086301000863010008A0
:1000B0006301000863010008630100086301000890
:1000C0006301000863010008630100086301000880
:1000D000630100080D1B00086301000863010008AC
:1000E0006301000863010008630100086301000860
:1000F0006301000863010008630100086301000850
:10010000630100086301000863010008630100083F
:10011000630100086301000863010008630100082F
:10012000630100086301000863010008630100081F
:10013000DFF810D000F07AFA00480047551D00089B
:10014000AFF3008038090020064880470648004782
:10015000FEE7FEE7FEE7FEE7FEE7FEE7FEE7FEE777
:10016000FEE7FEE7AD1A00083101000880EA01024F
:1001700010B502F00043400022D04A001FD0010E0B
:1001800001EB1261C0F35600C2F3560240F40000C6
:1001900042F40002A0FB022000047F39140400D0C6
:1001A000401C50EA124001D44000491EC2B20C0665
:1001B00004EBD010401C4008802A02D003E000204D
:1001C00010BD20F00100002900DA0020184310BD06
:1001D0002DE9FE4F804681EA0300C00F0C460090D7
:1001E00021F0004123F00045B8EB0200A94105D2FF
:1001F0004046214690461C460B46024623F00040EE
:10020000104347D0270DC7F30A00C3F30A510290E9
:10021000401A019040286BDAC3F3130040F4801BAE
:100220000098924620B10023D2EB030A63EB0B0B3C
:1002300001985946C0F14002504600F041F9064687
:100240000D4650465946019A00F049F910EB080056
:100250006141002487EA115284EAE7731A4340D0CF
:10026000009A62B3019A012A4FEA075215DC001B7B
:1002700061EB02014FF0004202EA0752CDE9004271
:10028000001C41F5801132462B4600F080F903B086
:10029000BDE8F08F40462146F9E7001B61EB020103
:1002A000001C41F5801300185B412018A2F50017CF
:1002B00047EB030140EAD570B6196D4111E06D08B6
:1002C0004FEA360645EAC0754FEA0752001B61EB5C
:1002D0000201001C41F5801149084FEA3000001965
:1002E000514132462B4603B0BDE8F04F00F040B913
:1002F0000098012240000023D0EB020263EBE07380
:10030000009821464FEAE074B8EB000061EB04016D
:10031000E9E783F000435BE781F0004158E72DE90E
:10032000FE4F81EA030404F0004421F000410094F0
:100330004FF0000B23F0004350EA01045ED052EA74
:1003400003045BD0C3F30A54C1F30A552C44A4F24E
:10035000F3340194A0FB0254C1F3130141F4801162
:10036000C3F3130343F4801301FB024400FB034E69
:10037000840A970A44EA815447EA8357A4FB076832
:1003800002958D0A05FB07854FEA932C04FB0C545C
:100390002705029D4FEA065847EA1637B5EB0805D0
:1003A0006EEB070C870E920E47EA811742EA831222
:1003B000A7FB0201B6EB0B0164EB00042B0D43EA33
:1003C0000C335E1844EB1C50DA465146E7FB020141
:1003D000C5F313044FEA0B3343EA14534FEA0432D4
:1003E000019C43EA0603A4F10C040294009CCDE9AD
:1003F00000B400F0CCF803B0BDE8F08F0020014657
:10040000F9E70EB5C10F80EAE0700844CA07002181
:1004100040F233438DE80E000A460B4600F0B7F871
:1004200003B000BD20F00040C10DC0F3160040F441
:1004300000007F2901DA00207047962903DCC1F112
:100440009601C840704796398840704700F00042D6
:1004500030F000400AD0C10D01F56071C0F3160004
:1004600042EA0151C208400711437047002001468B
:10047000704701F0004330B421F0004150EA01021E
:1004800006D00A0DA2F56072C1F31301002A02DC46
:1004900030BC00207047440F44EAC104C100E0189A
:1004A00030BC00EBC25000F02CB80000002801DB8B
:1004B000C0F10040002901DBC1F1004181427047D9
:1004C000202A04DB203A00FA02F100207047914014
:1004D000C2F1200320FA03F3194390407047202A09
:1004E00006DBCB17203A41FA02F043EAE07306E05C
:1004F00041FA02F3D040C2F120029140084319466C
:1005000070470029A8BF7047401C490008BF20F071
:100510000100704710B4B0FA80FC00FA0CF050EA09
:10052000010404BF10BC704749B1CCF1200421FA8A
:1005300004F411FA0CF118BF012121430843A3EB85
:100540000C01CB1D4FEA00614FEA102042BF002092
:1005500010BC704700EBC35010440029A4BF10BC6E
:100560007047401C490008BF20F0010010BC7047D4
:1005700010B5141E73F1000408DA401C41F10001AB
:1005800092185B411A4301D120F0010010BD2DE902
:10059000F04D92469B4611B1B1FA81F202E0B0FAF9
:1005A00080F220329046FFF78BFF04460F4640EA68
:1005B0000A0041EA0B0153465A46084313D011463C
:1005C00053EA010019D0C8F14002504600F040F84B
:1005D00005460E46504659464246FFF771FF08430E
:1005E00005D0012004E020463946BDE8F08D00200A
:1005F000054346EAE0762C4337430A986305E40A4C
:10060000A0EB08000022FD0A44EA47540A3002D554
:1006100000200146E9E7010510196941DDE90845B7
:1006200000196941BDE8F04DA2E70000064C074DF6
:1006300006E0E06840F0010394E8070098471034B2
:10064000AC42F6D3FFF778FD30370008503700088A
:10065000202A04DB203A21FA02F00021704721FA17
:1006600002F3D040C2F1200291400843194670477E
:1006700000B587B00121042001F0F6F801214802FD
:1006800001F0F2F80220ADF8180000208DF81B00F0
:1006900006A9344800F005FA0420ADF8180006A9B0
:1006A000304800F0FEF90820ADF8180006A92D48E2
:1006B00000F0F7F94020ADF8180006A9294800F02D
:1006C000F0F94FF4004001F0A3F8274800F098F843
:1006D0000020019001208DF808008DF809004FF4EA
:1006E000602003900020049004208DF8140001A9DC
:1006F0001D4800F0C7F801211B4800F037F81A48E0
:1007000000F044F900BF184800F0B2F80028FAD110
:10071000154800F04BF900BF134800F09FF800287F
:10072000FAD100F02FF80723012211460E4800F0FD
:10073000D1F80723022211460B4800F0CBF807231B
:1007400003221146084800F0C5F807230422114689
:10075000054800F0BFF80121034800F01CF907B07C
:1007600000BD0000000801400024014021B1826862
:1007700042F00102826003E0826822F0010282609E
:100780007047000000B58BB00121084601F04CF81D
:1007900004200390002002900A90104801904FF42A
:1007A0008060079080200590202008900C480090E1
:1007B00080150690002004904FF40050099069467F
:1007C000084800F04FF9012105484C3800F00CF8BA
:1007D0000121044800F03AF90BB000BD1E000020D2
:1007E0004C2401400800024021B1826842F480722A
:1007F000826003E0826822F48072826070470000A9
:1008000010B504461248844208D10121401501F078
:100810003BF80021601501F037F817E00D488442DD
:1008200008D10121001501F02FF80021201501F059
:100830002BF80BE00848844208D10121C80301F0DD
:1008400023F800214FF4004001F01EF810BD000015
:100850000024014000280140003C014001460020E6
:100860008A6802F004020AB1012000E0002070470B
:10087000014600208A6802F008020AB1012000E067
:100880000020704730B502460020002350680F4C0E
:1008900020400D790C6844EA05242043506090689C
:1008A0000B4C2040D1E902542C434D7944EA4504D5
:1008B00020439060D06A20F470000C7C641EE4B287
:1008C000234340EA0350D06230BD0000FFFEF0FF3A
:1008D000FDF7F1FFF0B504460D4600200021092D7B
:1008E00011DDE068A5F10A0606EB4607072606FAC1
:1008F00007F18843A5F10A0606EB460603FA06F15E
:100900000843E0600CE0206905EB4507072606FA7E
:1009100007F1884305EB450603FA06F10843206119
:10092000072A0FDA606B561E06EB86071F2606FAAB
:1009300007F18843561E06EB860605FA06F10843C2
:10094000606322E00D2A0FDA206BD61F06EB8607C4
:100950001F2606FA07F18843D61F06EB860605FA1E
:1009600006F10843206310E0E06AA2F10D0606EBF1
:1009700086071F2606FA07F18843A2F10D0606EB4B
:10098000860605FA06F10843E062F0BD816841F091
:1009900008018160704721B1826842F4A002826040
:1009A00003E0826822F4A00282607047816841F00F
:1009B000040181607047000070B50446012520786D
:1009C000E0B90AE000250E4800880A2802DA012072
:1009D000207002E00020207004E0284600F014F8A7
:1009E0000028EFD100BF2078012807D10C2305A2F1
:1009F00024216A2000F066FE00F072FD70BD000048
:100A00001E0000206F66660010B50446012C02D05F
:100A10000C48008810B964200A4908800BE0094896
:100A20000088401E00B2074908800A2001F046F9FC
:100A30000448007810BD034800880028EFD100BFAB
:100A4000F8E700002600002000BFFEE721B10268A1
:100A500042F00102026004E002684FF6FE731A40A1
:100A60000260704710B50022026847F6F0739A439F
:100A70000C6A8B6823430C6923434C6923438C69BC
:100A80002343CC6923434C6A23438C6A23431A4390
:100A90000260CB6843600B6883604B68C36010BD25
:100AA00070472DE9F0410246002500260020002372
:100AB0000024002791F803C00CF00F0591F803C043
:100AC0000CF0100CBCF1000F03D091F802C04CEAFE
:100AD000050591F800C0BCF1000F31D0146800206A
:100AE0002BE04FF0010C0CFA00F3B1F800C00CEA57
:100AF00003069E4220D183004FF00F0C0CFA03F73F
:100B0000BC4305FA03FC4CEA040491F803C0BCF1B1
:100B1000280F06D14FF0010C0CFA00FCC2F814C0EB
:100B20000AE091F803C0BCF1480F05D14FF0010C69
:100B30000CFA00FCC2F810C0401C0828D1D3146085
:100B4000B1F800C0BCF1FF0F34DD546800202EE086
:100B500000F1080C4FF0010808FA0CF3B1F800C0DE
:100B60000CEA03069E4221D183004FF00F0C0CFAD1
:100B700003F7BC4305FA03FC4CEA040491F803C0F4
:100B8000BCF1280F05D100F1080C08FA0CF8C2F8E6
:100B9000148091F803C0BCF1480F07D100F1080C94
:100BA0004FF0010808FA0CF8C2F81080401C082821
:100BB000CED35460BDE8F081F0B50A46002300248E
:100BC0000021002500F00046B6F1004F02D11D4E75
:100BD000F16901E01B4E7168C0F3034583B200F474
:100BE0004016B6F5401F08D121F07061154E7668A9
:100BF00026F07066134F7E6012E000F48016B6F5A2
:100C0000801F06D1032606FA05F4A14341F0706166
:100C100006E0460D360103FA06F6B14341F0706175
:100C200022B1460D360103FA06F6314300F00046C4
:100C3000B6F1004F02D1034EF16101E0014E716047
:100C4000F0BD0000000001400161704700BFFEE7F9
:100C500010B501F011F800F053F800F01DF800F0A5
:100C600080FDFFF705FD00F073F810BD08B5012108
:100C7000042000F0F9FDA020ADF8000010208DF850
:100C8000030003208DF8020069460248FFF709FFC0
:100C900008BD00000008014008B501211C2000F03B
:100CA000E3FD01211248FFF787FF49F60110ADF877
:100CB000000048208DF8030069460E48FFF7F1FE5A
:100CC0004FF47270ADF8000048208DF803006946BB
:100CD0000948FFF7E6FE4FF44040ADF80000482019
:100CE0008DF8030069460548FFF7DBFE08BD0000EC
:100CF0000002300000080140000C014000100140DB
:100D000008B50121082000F0AFFD3020ADF800004B
:100D100010208DF8030003208DF802006946044876
:100D2000FFF7BFFE30210248FFF78EFF08BD00002D
:100D3000000C014000BFFEE770470000024901437C
:100D4000024A1160704700000000FA050CED00E057
:100D500010B500F015F900F0B5F807E0102327A250
:100D60000021084600F0AEFC00F0BAFB00F056F897
:100D70000028F3D125490860052225492A2000F0E2
:100D800063F905222349302000F05EF9012121207A
:100D900000F078F90121222000F074F91A212420B2
:100DA00000F070F92821252000F06CF90F21262091
:100DB00000F068F90E21202000F064F9FF21E12005
:100DC00000F060F9FF21E22000F05CF9502000F013
:100DD0006BFD732000F068FD01213C2000F052F90A
:100DE00007213D2000F04EF901200B49C1F8B00168
:100DF000002006490839086010BD00004E6F7420BD
:100E000066696E64204E726600000000B081214267
:100E10006B1F0008661F0008008021421CB510A14E
:100E200003C9CDE9000105226946302000F00CF924
:100E300005226946102000F06FF8002406E01DF836
:100E40000400A52800D003E0601CC4B2052CF6DB2A
:100E500000BF052C01D001201CBD0020FCE70000D4
:100E6000A5A5A5A5A500000010B5072000F072F803
:100E7000044604F0400068B120220F49612000F0D0
:100E80004BF80C230DA20021782000F01BFC00F091
:100E900027FB0BE0FF21E22000F0F4F80C2308A26E
:100EA0000021782000F00EFC00F01AFB21462720DC
:100EB00000F0E8F810BD0000F40000203100000050
:100EC0003200000008B50121082000F0CDFC4FF4ED
:100ED0008060ADF8000010208DF8030003208DF82D
:100EE000020069460B48FFF7DCFD4FF48050ADF877
:100EF000000069460748FFF7D4FD4FF40060ADF8E5
:100F0000000048208DF8030069460248FFF7C9FD3C
:100F100008BD0000000C01402DE9F04107460D46D8
:100F2000164600200A490860384600F0BDFC80469D
:100F3000002405E0FF2000F0B7FC2855601CC4B277
:100F4000B442F7DB0120024908604046BDE8F08169
:100F5000A881214270B50446002007490860204658
:100F600000F0A2FCFF2000F09FFC05460120034991
:100F7000C1F8A801284670BDA88121420080214205
:100F800000B587B00121082000F06EFC0121880324
:100F900000F05AFC4FF46040ADF8180018208DF8AE
:100FA0001B0003208DF81A0006A91748FFF779FDEA
:100FB0000021164800F0B6FC0020ADF804004FF404
:100FC0008270ADF806000020ADF80800ADF80A0008
:100FD000ADF80C004FF40070ADF80E003820ADF8FD
:100FE00010000020ADF812000720ADF8140001A990
:100FF000064800F0B1FC102000F080FC01210348FD
:1010000000F090FC07B000BD000C0140003800402B
:1010100070B504460D4600200849086005220849BD
:101020002A2000F011F82A462146A02000F00CF8F2
:1010300001200449C1F8B00170BD0000B081214217
:101040006B1F0008008021422DE9F04107460C4645
:10105000154600200A490860384600F025FC804605
:10106000002605E014F8010B00F01EFC701CC6B24F
:10107000AE42F7DB0120024908604046BDE8F0813E
:10108000A881214270B505460C460020074908603A
:10109000284600F009FC0646204600F005FC012029
:1010A0000349C1F8A801304670BD0000A881214263
:1010B0000080214270B500240CE0002506E00020ED
:1010C000074901EBC5010855681CC5B2802DF6DB48
:1010D000601CC4B2082CF0DB00F002FA70BD000006
:1010E00034010020F8B55A48C0785949897840EA57
:1010F000012004B2564840795549097940EA012057
:1011000005B25348C0795249897940EA012006B2B4
:10111000002C0ADA01200C232D220021009024202B
:1011200000F000FA604204B207E001200C23202204
:1011300000210090242000F0F5F9642094FBF0F7E2
:101140000C2003233A46002100902A2000F070FA78
:1011500001200C232E22002100903C2000F0E2F917
:10116000642094FBF0F100FB11470C2002233A4667
:1011700000210090422000F05BFA002D0ADA0120E5
:101180000C232D2219460090242000F0CBF9684250
:1011900005B207E001200C232022194600902420EC
:1011A00000F0C0F9642095FBF0F70C2003233A46C9
:1011B000014600902A2000F03BFA01200C232E2249
:1011C000194600903C2000F0ADF9642095FBF0F149
:1011D00000FB11570C2002233A46014600904220A2
:1011E00000F026FA002E0ADA01200C232D22182105
:1011F0000090242000F096F9704206B207E001202A
:101200000C23202218210090242000F08BF9642068
:1012100096FBF0F70C2003233A46182100902A2071
:1012200000F006FA01200C232E22182100903C2009
:1012300000F078F9642096FBF0F100FB11670C20B8
:1012400002233A4618210090422000F0F1F9F8BD3F
:10125000F400002010B50C2314A20021084600F071
:1012600031FA0C2313A21946002000F02BFA0C23AC
:1012700012A21821002000F025FA0C2311A224212B
:10128000002000F01FFA0C2311A22421702000F08E
:1012900019FA0C230FA23221002000F013FA0C23BC
:1012A0000FA23221722000F00DFA10BD7069746334
:1012B000683A000020726F6C6C3A00002079617708
:1012C0003A0000007468726F5F6C6F636B3A0000E5
:1012D0006F6E0000506F7765725F763A0000000015
:1012E000487A000008B50C2000900448027A0323D5
:1012F0003221602000F09CF908BD0000F4000020BD
:101300002DE9FC5F4FF000093A48407839490978E7
:1013100040EA012004B22046FFF773F80746364A38
:10132000364BFEF7FCFF0546FFF7A3F88146002188
:1013300033480068FFF7BAF81ED031480068FFF75D
:1013400085F805464FF033322E4BFEF7E8FF07468F
:1013500088464846FFF77AF805464FF033322A4B65
:10136000FEF7DDFF82463A464346FEF731FFCDE900
:101370000001FFF77EF881462148C0F80090002167
:101380004846FFF793F80BD04846FFF75FF807464B
:101390001E4A1F4BFEF71CFF0546FFF76AF8814601
:1013A0001C494846FEF7E2FE0546FFF73BF804B24B
:1013B000642094FBF0F50C2002232A463221009091
:1013C000302000F035F901200C232E22322100902C
:1013D0003C2000F0A7F8642094FBF0F100FB1145DD
:1013E0000C2002232A4632210090422000F020F9EE
:1013F000BDE8FC9FF4000020C217265305A3823FDE
:10140000280000203333EB3F3333C33F3D0AD7A3DB
:10141000703DEA3F0000C842F0B5144600267F2820
:1014200001DC3F2900DDF0BD0B46CF1701EB5777FC
:10143000FF10C7F10707FAB2CF1701EB5777FF107C
:10144000A1EBC707FDB2C5F107070123BB40DEB220
:101450004CB10A4B03EBC0039B5C3343074F07EBD4
:10146000C007BB5408E0054B03EBC0039B5CB343D0
:10147000024F07EBC007BB5400BFD4E73401002084
:1014800010B50120084908600849C1F8940100F02E
:101490003BFC002004490860012000F035FC0020DE
:1014A0000249C1F8940110BD9C0121420000214273
:1014B00010B50020084908600849C1F89C010120C6
:1014C00000F022FC0120044908600449C1F89C0195
:1014D00000F01AFC10BD00009401214200002142DE
:1014E00070B5002418E004F1B001C8B200F019F999
:1014F000002000F016F9102000F013F9002507E095
:10150000074901EBC501085D00F01BF9681CC5B275
:10151000802DF5DB601CC4B2082CE4DB70BD00003C
:10152000340100202DE9F84F80460F4616461C4630
:10153000BA462046E31704EB5373DB1021464FEA0B
:10154000E47C04EB5C7C4FEAEC0CA4EBCC0CBCF12F
:10155000000F02D04FF0010C01E04FF0000C63448B
:10156000224604EBD27C4FEA6C0C03FB0CF303F035
:10157000FF0BA6F12000C6B200254EE00C2C07D1CF
:1015800006EB4600274901EB8000405D009013E028
:10159000102C05D1244800EB0610405D00900BE0B4
:1015A000182C07D106EBC600204901EB8000405DF6
:1015B000009001E0BDE8F88F4FF0000927E00098A7
:1015C00000F0800028B1394640460A9AFFF724FF10
:1015D00009E00A9808B9012000E0002002463946D7
:1015E0004046FFF719FF00984006000E0090781C57
:1015F000C7B2A7EB0A00A04205D1574608F1010087
:1016000000F0FF0806E009F1010000F0FF09B9F160
:10161000080FD4DB00BF681CC5B25D45AEDB00BF60
:10162000C8E70000701F0008E4230008D429000860
:101630002DE9FF4F81B0074691461E460E9D4FF0A3
:10164000000A002439E0301B401EC1B20A2000F01D
:101650007FFCB9FBF0F00A21B0FBF1F201FB1208AC
:10166000BAF1000F16D1701EA04213DDB8F1000FC1
:101670000ED10120AB4605EBDB71491001FB047173
:101680000090C8B22B4620220299FFF74BFF12E0D0
:101690004FF0010A0120AB4605EBDB71491001FB5D
:1016A00004710090C8B208F13001CAB22B46029909
:1016B000FFF738FF00BF601CC4B2B442C3DB05B003
:1016C000BDE8F08FF8B506460F4615461C4621E0EA
:1016D00004EBD4714910C1F18001B14202DA002655
:1016E0003819C7B2C4F14000B84204DA00200646F7
:1016F0000746FFF7DFFC012000902A782346394691
:101700003046FFF70FFF204604EBD07106EB610176
:10171000CEB26D1C28787E2802DC28782028D7DA03
:10172000F8BD10B50446FFF7ABFE782000F064FA70
:10173000002000F061FA204600F05EFAFFF7B8FEE4
:1017400010BD10B50446FFF79BFE782000F054FA58
:10175000402000F051FA204600F04EFAFFF7A8FEB4
:1017600010BD10B5FFF782FA4FF4FA7000F0A6FA38
:10177000AE20FFF7D6FFD520FFF7D3FF5020FFF7AD
:10178000D0FFA820FFF7CDFF3F20FFF7CAFFD320EF
:10179000FFF7C7FF0020FFF7C4FF4020FFF7C1FF9E
:1017A0008D20FFF7BEFF1420FFF7BBFF2020FFF7BF
:1017B000B8FF0220FFF7B5FFA120FFF7B2FFC0205E
:1017C000FFF7AFFFDA20FFF7ACFF1220FFF7A9FF0A
:1017D0008120FFF7A6FFEF20FFF7A3FFD920FFF737
:1017E000A0FFF120FFF79DFFDB20FFF79AFF3020DD
:1017F000FFF797FFA420FFF794FFA620FFF791FFC4
:10180000AF20FFF78EFFFFF755FC10BD70470000BB
:1018100001460020034A506820F4404008435060CD
:10182000704700000010024029B1064A5269024385
:10183000044B5A6104E0034A52698243014B5A61E6
:10184000704700000010024029B1064AD2690243E5
:10185000044BDA6104E0034AD2698243014BDA6146
:10186000704700000010024029B1064A9269024305
:10187000044B9A6104E0034A92698243014B9A61E6
:10188000704700000010024029B1064AD2680243A6
:10189000044BDA6004E0034AD2688243014BDA6009
:1018A000704700000010024070B50546002405E0B6
:1018B000601CC4B2C82C01DD002070BD02210E489E
:1018C00000F03CF80028F3D029460B4800F042F81D
:1018D000002405E0601CC4B2C82C01DD0020ECE748
:1018E0000121054800F02AF80028F3D0024800F052
:1018F0002EF8C0B2E1E7000000380040084909882E
:101900004FF6C7721140064A1180114609880143FB
:1019100011801146098841F0400111807047000094
:101920000038004021B1028842F04002028004E009
:1019300002884FF6BF731A400280704702460020AB
:1019400013890B400BB1012000E0002070470146D5
:10195000888970478181704710B50022028802F49F
:1019600041520B884C8823438C882343CC882343E3
:101970000C8923434C8923438C892343CC892343FB
:101980001A430280838B4FF2FF74234083830B8AB8
:10199000038210BD704710B500F002F810BD0000C2
:1019A0000CB50020019000903348006840F480306E
:1019B0003149086000BF3048006800F400300090F2
:1019C0000198401C0190009818B90198B0F5A06FDB
:1019D000F1D12948006800F4003010B101200090D6
:1019E00001E0002000900098012843D123480068BE
:1019F00040F01000214908600846006820F003000C
:101A000008600846006840F0020008601A48406814
:101A1000194948600846406848600846406840F4F4
:101A2000806048600846406820F47C1048600846A2
:101A3000406840F4E81048600846006840F0807054
:101A4000086000BF0C48006800F000700028F9D062
:101A50000948406820F0030007494860084640688C
:101A600040F00200486000BF0348406800F00C00EE
:101A70000828F9D10CBD00000010024000200240EF
:101A8000042808D14FF0E021096941F004014FF02A
:101A9000E022116107E04FF0E021096921F0040123
:101AA0004FF0E022116170477047000010B51348F5
:101AB000006840F00100114908600846406810497C
:101AC00008400E494860084600680E4908400B4926
:101AD00008600846006820F48020086008464068D6
:101AE00020F4FE0048604FF41F008860FFF753FFAA
:101AF0004FF000600449086010BD00000010024073
:101B00000000FFF8FFFFF6FE08ED00E010B540F220
:101B100025511D4800F03EF810B31B4800F064F852
:101B2000C4B21A48008800F40040C8B917480088B9
:101B300000F4804060B10A2C03D0002013490880D3
:101B400020E01248008840F400401049088019E065
:101B50000D2C06D10D48008840F480400B490880C8
:101B600010E00A480088C0F30D0009490C540748EA
:101B70000088401C0549088008460088C72801DD08
:101B80000020088010BD0000003801401C0000202B
:101B90002C00002070B50246002400230025002000
:101BA00040F66A16B14200D100BFC1F3421501F000
:101BB0001F03012606FA03F3012D02D19689334053
:101BC00006E0022D02D1168A334001E0968A3340A6
:101BD0000C12012606FA04F41688344013B10CB135
:101BE000012000E0002070BD01468888C0F3080095
:101BF000704700BFFEE7000070B50446002517E0FF
:101C000004F0800018B101201149086002E00020B2
:101C10000F49086001200E490839086000F074F887
:101C200000200C49C1F894016006040E681CC5B27E
:101C3000082DE5DB0120064908600649C1F894013A
:101C400000F062F8002002490839086070BD000009
:101C50009C0121420000214202E008C8121F08C175
:101C6000002AFAD170477047002001E001C1121F1D
:101C7000002AFBD17047000010B56FF00400FFF799
:101C8000FFFE0A4800680A49B0FBF1F009490870F4
:101C90000846007800EB4001C1EBC0104FF6FF7121
:101CA00001EAC0000449088010BD000000000020C7
:101CB00000127A0014000020160000200146114A8C
:101CC00012884A434FF0E0235A6100229A611A4673
:101CD000126942F001021A6100BF4FF0E022106960
:101CE00000F001021AB100F48032002AF5D04FF062
:101CF000E022126922F001024FF0E0231A61002273
:101D00009A617047160000200146114A12784A4332
:101D10004FF0E0235A6100229A611A46126942F09C
:101D200001021A6100BF4FF0E022106900F00102C9
:101D30001AB100F48032002AF5D04FF0E022126987
:101D400022F001024FF0E0231A6100229A617047ED
:101D50001400002008B500200090002400254FF456
:101D6000A060FEF7EBFFFEF773FFFFF7A3F9FFF7A5
:101D700071FAE3E06846FEF71FFEFFF775F870485A
:101D8000006870B91420FFF799FF6D48006810B91A
:101D900001206C49087000BF694800680028FBD02A
:101DA00002E00020674908706548001F006880B99C
:101DB0001420FFF783FF6248001F006810B901205C
:101DC0006049487000BF5E48001F00680028FAD0D4
:101DD00002E000205B4948709DF80000012827D1EF
:101DE00059480088B0F57A6F03DD4FF47A605649A0
:101DF0000880554909880A2291FBF2F101EB810123
:101E0000490091FBF2F0C11700EB1161C1F3072407
:101E10004D49098891FBF2F101EB8101490091FBE9
:101E2000F2F0C11700EB11610912A0EB0121CDB254
:101E300044488470C570444880880A2190FBF1F0C2
:101E400000EB80004000642190FBF1F03D490871F7
:101E50003D48C0880A2190FBF1F000EB8000400073
:101E6000642190FBF1F03749487135480838006823
:101E700080B91420FFF722FF31480838006810B9F4
:101E800001203049887100BF2D48083800680028BB
:101E9000FAD002E000202B49887129480C380068EC
:101EA00080B91420FFF70AFF25480C38006810B9E4
:101EB00001202449C87100BF21480C38006800285F
:101EC000FAD002E000201F49C8712048006870B9AC
:101ED0001420FFF7F3FE1D48006810B901201949CE
:101EE000087200BF194800680028FBD002E00020FB
:101EF000144908721548001F006880B91420FFF7C4
:101F0000DDFE1248001F006810B901200D4948721B
:101F100000BF0E48001F00680028FAD002E0002031
:101F20000849487220210748FFF772F8FFF7DAF8EE
:101F3000FFF7E6F9FFF7D6F9FFF7D2FA1AE7000044
:101F400024812142140100201E0000203001214282
:101F500010B50246012000E050430B1EA1F1010420
:101F6000E1B2F9D110BD666666666666666666664B
:101F70000000000000000000000000000000000061
:101F80003F40000000000000000030004000300032
:101F90004000000009000BC03D000BC03D000900DF
:101FA00018C024407FE0224031800000180024C087
:101FB0001B000D803240018003801C4027401C80A4
:101FC000074000401000600000000000000000001A
:101FD0000000000000001F80204040200000402042
:101FE00020401F8000000000090006001F8006003E
:101FF00009000000040004003F8004000400000009
:102000000010006000000000000000000400040058
:102010000400040004000000000000400000000074
:1020200000000000002001C0060038004000000051
:102030001F802040204020401F80000000001040F2
:102040003FC000400000000018C021402240244052
:102050001840000010802040244024401B800000D5
:1020600002000D0011003FC0014000003C802440F0
:1020700024402440238000001F802440244034401A
:10208000038000003000200027C03800200000003E
:102090001B802440244024401B8000001C0022C0E0
:1020A000224022401F800000000000000840000085
:1020B00000000000000000000460000000000000BC
:1020C000000004000A0011002080404009000900BF
:1020D00009000900090000000000404020801100B4
:1020E0000A0004001800200023402400180000000B
:1020F0001F802040274029401F400000004007C0AB
:1021000039000F0001C0004020403FC0244024405F
:102110001B8000001F8020402040204030800000B5
:1021200020403FC0204020401F80000020403FC092
:1021300024402E4030C0000020403FC024402E00EC
:10214000300000000F001080204022403380020049
:1021500020403FC0040004003FC0204020402040F9
:102160003FC02040204000000060202020203FC0D1
:102170002000200020403FC024400B0030C0204001
:1021800020403FC020400040004000C03FC03C0015
:1021900003C03C003FC0000020403FC00C40230073
:1021A0003FC020001F802040204020401F800000B2
:1021B00020403FC024402400180000001F80214020
:1021C000214020E01FA0000020403FC02440260006
:1021D00019C0004018C02440244022403180000033
:1021E000300020403FC020403000000020003F80F1
:1021F000004000403F80200020003E0001C007005A
:1022000038002000380007C03C0007C0380000003C
:10221000204039C0060039C020400000200038406E
:1022200007C0384020000000304021C02640384020
:1022300020C00000000000007FE04020402000009F
:10224000000070000C0003800040000000004020EF
:1022500040207FE00000000000002000400020003F
:10226000000000000010001000100010001000100E
:10227000000000004000000000000000000002809C
:102280000540054003C0004020003FC0044004401A
:10229000038000000000038004400440064000006A
:1022A00000000380044024403FC000400000038041
:1022B0000540054003400000000004401FC02440CA
:1022C00024402000000002E0055005500650042084
:1022D00020403FC00440040003C000400000044010
:1022E00027C000400000000000100010041027E08C
:1022F0000000000020403FC00140070004C004402F
:10230000204020403FC000400040000007C00400C3
:1023100007C0040003C00000044007C004400400DC
:1023200003C000400000038004400440038000001C
:10233000041007F0045004400380000000000380F4
:102340000440045007F00010044007C0024004009D
:1023500004000000000006400540054004C00000E5
:10236000000004001F8004400040000004000780BB
:102370000040044007C000400400070004C0018082
:1023800006000400060001C0070001C006000000AE
:10239000044006C0010006C00440000004100710FD
:1023A00004E00180060004000000044005C006406F
:1023B000044000000000000004007BE0402000001A
:1023C000000000000000FFF00000000000004020BE
:1023D0007BE004000000000040008000400020007E
:1023E000200040000000000000000000000000008D
:1023F000000000000000000000001FCC000C0000E6
:1024000000000000000008003000600008003000FC
:1024100060000000022003FC1E20022003FC1E209E
:102420000220000000000E1811043FFF10840C78F9
:10243000000000000F0010840F3800C007781884D7
:102440000078000000780F8410C411240E9800E476
:102450000084000808006800700000000000000010
:102460000000000000000000000007E01818200431
:1024700040020000000040022004181807E000009D
:10248000000000000240024001800FF00180024085
:10249000024000000080008000800FF80080008073
:1024A000008000000001000D000E00000000000090
:1024B000000000000000008000800080008000809C
:1024C000008000800000000C000C000000000000F4
:1024D00000000000000000060018006001800600F7
:1024E00018002000000007F0080810041004080875
:1024F00007F000000000080408041FFC00040004AA
:102500000000000000000E0C101410241044118470
:102510000E0C000000000C181004110411041288A5
:102520000C700000000000E00320042408241FFCBD
:102530000024000000001F9810841104110410886A
:1025400010700000000007F00888110411041888BA
:102550000070000000001C00100010FC13001C00A4
:102560001000000000000E38114410841084114443
:102570000E38000000000700088C10441044088842
:1025800007F00000000000000000030C030C000036
:102590000000000000000000000101060000000033
:1025A0000000000000000080014002200410080824
:1025B000100400000220022002200220022002203B
:1025C000022000000000100408080410022001404E
:1025D0000080000000000E001200100C106C108033
:1025E0000F00000003E00C1813E4142417C408289B
:1025F00007D000000004003C03C41C40074000E476
:10260000001C000410041FFC1104110411040E88A6
:102610000070000003E00C181004100410041008EF
:102620001C10000010041FFC100410041004080803
:1026300007F0000010041FFC1104110417C410045B
:102640000818000010041FFC1104110017C010002E
:102650000800000003E00C181004100410441C785B
:102660000040000010041FFC1084008000801084D3
:102670001FFC10040000100410041FFC10041004C0
:102680000000000000030001100110011FFE1000F7
:102690001000000010041FFC110403801464181CB7
:1026A0001004000010041FFC1004000400040004C7
:1026B000000C000010041FFC1F0000FC1F001FFC8A
:1026C0001004000010041FFC0C04030000E01018AC
:1026D0001FFC100007F0080810041004100408087C
:1026E00007F0000010041FFC108410801080108080
:1026F0000F00000007F0081810241024101C080A0E
:1027000007F2000010041FFC1104110011C0113069
:102710000E0C000400000E1C1104108410841044E0
:102720001C3800001800100010041FFC10041000DA
:102730001800000010001FF810040004000410042A
:102740001FF8100010001E0011E0001C0070138024
:102750001C0010001FC0103C00E01F0000E0103CF7
:102760001FC000001004180C163401C001C016343C
:10277000180C100410001C00130400FC13041C00AF
:10278000100000000804101C1064108413041C04C2
:10279000101800000000000000007FFE4002400210
:1027A00040020000000030000C0003800060001CAC
:1027B0000003000000004002400240027FFE0000D3
:1027C0000000000000000000200040004000400029
:1027D00020000000000100010001000100010001D3
:1027E0000001000100004000400020000000000047
:1027F000000000000000009801240144014401444D
:1028000000FC000410001FFC008801040104008883
:102810000070000000000070008801040104010441
:102820000088000000000070008801040104110805
:102830001FFC0004000000F801440144014401446D
:1028400000C800000000010401040FFC1104110481
:1028500011001800000000D601290129012901C931
:102860000106000010041FFC0084010001000104A7
:1028700000FC000400000104190419FC0004000419
:10288000000000000000000300010101190119FE11
:102890000000000010041FFC0024004001B4010CE3
:1028A000010400000000100410041FFC00040004D8
:1028B00000000000010401FC0104010001FC01040E
:1028C000010000FC010401FC00840100010001047E
:1028D00000FC0004000000F80104010401040104EC
:1028E00000F80000010101FF0085010401040088D7
:1028F0000070000000000070008801040104010560
:1029000001FF00010104010401FC00840104010035
:1029100001800000000000CC0124012401240124D6
:102920000198000000000100010007F80104010403
:1029300000000000010001F8000400040004010888
:1029400001FC0004010001800170000C0010016016
:102950000180010001F0010C003001C00030010CC9
:1029600001F0010000000104018C00740170018C71
:1029700001040000010101810171000E00180160D5
:102980000180010000000184010C01340144018434
:10299000010C0000000000000000000001003EFCEF
:1029A000400240020000000000000000FFFF0000A5
:1029B000000000000000400240023EFC0100000058
:1029C0000000000000006000800080004000400027
:1029D00020002000000000000000000000000000B7
:1029E00000000000000000000000000000000000E7
:1029F00000000000000000000000000000000000D7
:102A0000000000000000000F80380FFE380F8038F3
:102A100000000000000000000000000000000000B6
:102A200000000100000600000C000038000031002A
:102A3000000600000C00003800003000000000001C
:102A40000000000061800067F807F98000618000E5
:102A500061800061800061800067F807F980006193
:102A60008000000000000000000001C0E003E0F072
:102A70000630080418081FFFFE040E080787F0033D
:102A800081E000000000000001F000060C000404DA
:102A900008060C7001F9C0000E00003BE000EC18C5
:102AA000070808040C180003E00000000001E00023
:102AB00007F003F818041C0804170807E1D003C046
:102AC000E00023B0003C08002008000010000000D7
:102AD0000000000100003100003200001C00000076
:102AE00000000000000000000000000000000000E6
:102AF00000000000000000000000000000000000D6
:102B0000000000007F0001FFC00780F00C001810DB
:102B1000000420000200000000000020000210005D
:102B2000040C00180780F001FFC0007F00000000C7
:102B30000000000000000000000000000000000095
:102B40004200006600006600003C0000180003FF21
:102B5000C0001800003C0000660000660000420053
:102B60000000000008000008000008000008000045
:102B7000080001FFC000080000080000080000086D
:102B800000000800000000000001000031000032D9
:102B900000001C0000000000000000000000000019
:102BA0000000000000000000000000000800000815
:102BB00000000800000800000800000800000800ED
:102BC00000080000080000080000000000000000ED
:102BD000000000003800003800003800000000004D
:102BE00000000000000000000000000000000000E5
:102BF00000000000000600001C00007000018000C2
:102C00000E0000380000C0000700001C000030006B
:102C100000000000000000007F8001FFE0038070E2
:102C2000060018040008040008060018038070015C
:102C3000FFE0007F800000000000000000000100B5
:102C40000801000801000803FFF807FFF80000086A
:102C50000000080000080000000000000000000163
:102C6000C03802C058040098040118040218040473
:102C700018061C1803F81801E0F800000000000016
:102C800000000001C0E003C0F004000804080804CC
:102C9000080806180803F41801E7F00001E0000036
:102CA00000000000000000000300000D0000110003
:102CB00000610000810803010807FFF80FFFF8001A
:102CC00001080001080000000000000000E007FC0F
:102CD000D00608080610080610080610080618385E
:102CE000060FF00607C00000000000000000000012
:102CF0003F8001FFE003843002081804100804102C
:102D000008041008071810030FF00007C0000000A7
:102D100000000000000003C00007000006000006DD
:102D200000F80607F806180006E000070000060095
:102D30000000000000000001E1E003F7F00634109D
:102D4000041808041808040C08040C0806161803D4
:102D5000F3F001C1E000000000000000F80003FCF7
:102D600030030638040208040208040208040410B0
:102D70000308F001FFC0007F000000000000000019
:102D8000000000000000000000000000703800702B
:102D90003800703800000000000000000000000053
:102DA0000000000000000000000000000000000023
:102DB000301A00301C00000000000000000000007D
:102DC00000000000000000000000000800001400E7
:102DD0000022000041000080800100400200200429
:102DE0000010080008000000000000002100002181
:102DF000000021000021000021000021000021002E
:102E0000002100002100002100000000000000005F
:102E100000000800080400100200200100400080AB
:102E200080004100002200001400000800000000A3
:102E300000000003C00004C00004000008003808BF
:102E40000F380808380810000C300007E00003C0F5
:102E500000000000000000003F8000FFE0038070E1
:102E6000020F1006708804C088048308047F88025B
:102E7000C09003012000FE4000000800001800017F
:102E8000F8003E0801C20007020007E20000FE0051
:102E9000001FC80001F800003800000804000807FF
:102EA000FFF807FFF80408080408080408080408E5
:102EB0000806180803F41801E7F00001E00000001C
:102EC000000000003F8001FFE00380700200180452
:102ED0000008040008040008040010060020078011
:102EE000C000000004000807FFF807FFF80400080E
:102EF0000400080400080400180200100380700198
:102F0000FFE0007F8000000004000807FFF807FFD3
:102F1000F8040808040808040808040808043E081F
:102F20000400080600180100600000000400080703
:102F3000FFF807FFF8040808040800040800040864
:102F400000043E00060000060000018000000000B2
:102F5000000000003F8001FFE003807006001804BD
:102F600000080402080402080203F00783F00002CC
:102F70000000020004000807FFF807FFF804080833
:102F80000008000008000008000008000408080706
:102F9000FFF807FFF804000800000000000004002C
:102FA0000804000804000807FFF807FFF8040008F9
:102FB00004000804000800000000000000000000F9
:102FC00000060000070000010400010400010400E5
:102FD0000307FFFE07FFFC040000040000040000DC
:102FE00004000807FFF807FFF8040C0800180000A9
:102FF0003E0004C7800503C80600F804003804003A
:103000001800000804000807FFF807FFF80400088C
:103010000000080000080000080000080000080088
:10302000001800006000000004000807FFF8078097
:103030000807FC00007FC00003F80007C00078000C
:1030400007800807FFF807FFF804000804000807D6
:10305000FFF807000803C00000E000003800001E71
:10306000000007000001C00400F007FFF8040000A2
:10307000000000007F8001FFE0038070060018045C
:10308000000804000806001803003001FFE0007F7C
:103090008000000004000807FFF807FFF804040898
:1030A000040400040400040400040400060C0003EB
:1030B000F80001F000000000000000007F8001FF28
:1030C000E00380700600880400880400C806003C05
:1030D00003003E01FFE6007F8400000004000807B3
:1030E000FFF807FFF8040808040800040C00040FA8
:1030F00000040BC00610F003F03801E008000008DF
:1031000000000001E0F803F0300630100418080455
:103110001808040C08040C080206180207F00781BE
:10312000E000000001800006000004000004000030
:1031300004000807FFF807FFF80400080400000473
:10314000000006000001800004000007FFE007FF08
:10315000F004001800000800000800000800000843
:1031600000000804001007FFE0040000040000064F
:10317000000007E00007FE00041FE00001F8000067
:10318000380001E0043E0007C00006000004000013
:1031900004000007E00007FFC0041FF80007C00795
:1031A000F80007FF80043FF80007C004F80007009C
:1031B0000004000000000004000806001807C078A2
:1031C00005F1C8003E00001F800463E80780F80690
:1031D000001804000800000004000006000007803A
:1031E0000007E008047C08001FF80007F800180832
:1031F00004E00807000006000004000000000001D1
:1032000000080600380400F80403E8040F08047CF2
:103210000805F00807C00807001804006000000057
:103220000000000000000000000000000000003F5F
:10323000FFFE2000022000022000022000022000E9
:10324000020000000000000000000800000700006D
:1032500000C0000038000006000001C0000030007F
:10326000000E00000100000000000000000020002F
:10327000022000022000022000022000023FFFFE88
:10328000000000000000000000000000000000003E
:1032900000000000000800001000003000002000C6
:1032A00000300000100000080000000000000000D6
:1032B0000000010000010000010000010000010009
:1032C00000010000010000010000010000010000F9
:1032D00001000001000000000000000000200000CC
:1032E000200000100000100000000000000000009E
:1032F00000000000000000000000000000F00019C5
:10330000F8001B18002208002608002408002410DA
:10331000003FF8001FF8000008000018000000043B
:10332000000007FFF80FFFF0001818001008002039
:1033300008002008003018001FF0000FC000000037
:103340000000000007C0001FF00018300020080037
:103350002008002008003C08001C1000006000004D
:10336000000000000000000007C0001FF000381837
:1033700000200800200800200804101007FFF80FA4
:10338000FFF0000010000000000000000000000737
:10339000C0001FF00012300022180022080022088E
:1033A000003208001E10000E200000000000000087
:1033B000200000200800200801FFF803FFF8062085
:1033C0000804200804200807200003000000000073
:1033D00000000000000E000E6E001FF30031B1006F
:1033E00020B10020B1003191001F13002E1E0020DB
:1033F0000E00300000000004000807FFF80FFFF87F
:10340000001008002000002000002008003FF80005
:103410001FF800000800000000000000000000206D
:1034200008002008002008063FF8063FF8000008C2
:10343000000008000008000000000000000000007C
:103440000000000003000003002001002001002014
:1034500003063FFE063FFC000000000000000000E5
:1034600000000004000807FFF80FFFF800018800C3
:103470000300002FC00038F80020380020080000AA
:10348000080000000000000000000400080400081C
:1034900004000807FFF80FFFF8000008000008000C
:1034A0000008000000000000002008003FF8003F76
:1034B000F8001008002000003FF8003FF800100856
:1034C000002000003FF8003FF80000080000000066
:1034D0002008003FF8003FF800100800100000200E
:1034E00000002008003FF8001FF80000080000005E
:1034F0000000000007C0000FF00018300030080086
:103500002008002008003008001830000FF00007E5
:10351000C0000000000000002001003FFF003FFF4E
:103520000010110020090020080020080030380099
:103530001FF0000FC00000000000000007C0001FC7
:10354000F0003818002008002008002009001011A1
:10355000001FFF003FFF00000100000000200800E6
:103560002008002008003FF8003FF800080800107D
:10357000080020080020000030000030000000009B
:10358000000000000000000C78001E180033080046
:1035900023080021080021880021980030F000381D
:1035A000600000000000000020000020000020005B
:1035B00000FFF003FFF800200800200800200800AA
:1035C0000030000000000000000000002000003F6C
:1035D000F0007FF80000180000080000080020102C
:1035E000003FF8007FF00000100000000000000025
:1035F0002000003000003C00003F800023F000006D
:1036000078000070002380003C00003000002000A3
:10361000002000003C00003FE00023F80000E00034
:103620002700003E00003FE00021F80001E0003EDE
:1036300000002000000000002008002008003838AA
:10364000003E680027800003C8002CF800383800CE
:1036500020180020080000000000000020000030BA
:1036600003003C01003F830023EC00007000238036
:10367000003C0000200000200000000000000000CE
:1036800000000038080020380020F80023E8002F50
:1036900088003E0800380800201800007000000074
:1036A000000000000000000000000000000000001A
:1036B00008000014001FF7FC300006200002000084
:1036C00000000000000000000000000000000000FA
:1036D000000000000000FFFFFF00000000000000ED
:1036E00000000000000000000000000000002000BA
:1036F000023000061FF7FC00140000080000000064
:1037000000000000000000000000000000000018A1
:103710000000600000400000400000200000100099
:10372000000800000400000400000C00001000006D
:1037300050370008000000202C000000581C000832
:103740007C3700082C0000200C090000681C0008D1
:1037500000A24A040000000000000000010203046F
:10376000060708090000000000000000000000003B
:0C3770000000000000000000000000004D
:0400000508000131BD
:00000001FF
